:100000000C942A000C9447000C9447000C94470071
:100010000C9447000C9447000C9447000C94470044
:100020000C9447000C9447000C9447000C94470034
:100030000C9447000C9447000C9447000C94470024
:100040000C9447000C9447000C9447000C94470014
:100050000C94470011241FBECFE5D4E0DEBFCDBF16
:1000600010E0A0E6B0E0E8E3F2E002C005900D92F7
:10007000A236B107D9F710E0A2E6B0E001C01D92A8
:10008000A636B107E1F70E94B1000C941A010C9456
:1000900000001BB810BC88E089B988E18AB986E8FD
:1000A00080BD08955D9BFECF8CB90895CF93DF93FB
:1000B000482F64E60E94E700E82F282F30E08CE903
:1000C0009FEF289FE001299FD00D389FD00D11246C
:1000D000CE01840F911D6AE070E00E94F3005D9BE9
:1000E000FECFE05DECB95D9BFECF605D6CB9605307
:1000F0005D9BFECF405D4C0F86EF9FEF689F802D8C
:100100001124840F8CB9DF91CF9108955F9BFECFAE
:100110008CB1089588EE93E020E931E0F901319740
:10012000F1F70197D9F70895FC0104C05D9BFECF5C
:100130008CB9319680818823C9F784E690E00E94CB
:100140008A00089586E886B9089590E697B997B130
:10015000982B97B9369A80EA9FE00197F1F785B11D
:100160000895FF920F931F93CF93DF938FEF87BB79
:1001700018BA96E896B91BB810BC88E089B988E12E
:100180008AB990BD88EE93E020E931E0F90131971A
:10019000F1F70197D9F780E6F82E00EA1FE0C0E9F1
:1001A000D1E0F7B887B187B9369AC8010197F1F75E
:1001B00085B10E94560080E690E00E94940080E1A4
:1001C00097E2FE013197F1F70197D9F7EACF991B32
:1001D00079E004C0991F961708F0961B881F7A953E
:1001E000C9F78095089597FB092E07260AD077FD59
:1001F00004D00CD006D000201AF4709561957F4F82
:100200000895F6F7909581959F4F0895AA1BBB1B03
:1002100051E107C0AA1FBB1FA617B70710F0A61B06
:10022000B70B881F991F5A95A9F780959095BC0127
:08023000CD010895F894FFCF01
:020238000A00BA
:00000001FF
